:10025C00010C00C100C101010EFF020A00000108DF
:01026C000091
:1001880012029FAE0AAF0BE4FCFD7BFF7AFFF9F881
:10019800D3120044400A050BE50B7009050A8005D7
:1001A800E4F50AF50B1202430509E509C394644016
:0901B800D2E4F509850EA080CA0D
:10027400E50C14600A04700D30000A750C0122208C
:060284000003E4F50C226A
:100243001202295005B200120274E50C1460060470
:0902530070060201C11201E8224B
:1001C10030010BAF0BAE0A12028A8F0EC201E50D90
:1001D1006003E4F50D050FE50FC3940A4008E4F54B
:0701E1000F12020F92012230
:1001E800E50D6003E4F50D050FE50FC3940A40160D
:1001F800E4F50F0508E508B4960CAF0BAE0A120239
:060208008A8F0EE4F508E8
:01020E0022CD
:10028A0012017D12013B7C007DFF12000EED24015C
:04029A00FFE43CFE43
:01029E00223D
:10029F00758901758CFC758A18D28CD2A9D2AF22C0
:03000B000202AF3F
:0A02AF00750D01758CFC758A18327C
:06026D0001140001150060
:10020F0020B1120514E514D3940050021514E5140F
:09021F00B40205D322E4F514C376
:0102280022B3
:1002290020B0120515E515D3940050021515E515F2
:09023900B40205D322E4F515C35B
:010242002299
:030000000200AF4C
:0C00AF00787FE4F6D8FD7581200200F691
:10000E00C2D5EC30E709B2D5E4C39DFDE49CFCEE0D
:10001E0030E715B2D5E4C39FFFE49EFE12005AC32B
:10002E00E49DFDE49CFC800312005A30D507C3E426
:06003E009FFFE49EFE227C
:10004400EB9FF5F0EA9E42F0E99D42F0EC6480C833
:0600540064809845F022D3
:10013B00AC10AD11AE12AF137810EC4D4E4F7004E6
:10014B007CA57DA5C3EC13FCED13FDEE13FEEF13A5
:10015B00FF5010EC64CCFCED644CFDEE644EFEEFF6
:10016B0064CEFFD8DF8C108D118E128F13EE547F5F
:0D017B00FE228E108F1174A5F512F51322CF
:1000BB00020188E493A3F8E493A34003F68001F2D2
:1000CB0008DFF48029E493A3F85407240CC8C33346
:1000DB00C4540F4420C8834004F456800146F6DF15
:1000EB00E4800B010204081020408090025CE47E47
:1000FB00019360BCA3FF543F30E509541FFEE4930A
:10010B00A360010ECF54C025E060A840B8E493A3D0
:10011B00FAE493A3F8E493A3C8C582C8CAC583CAFB
:10012B00F0A3C8C582C8CAC583CADFE9DEE780BEB3
:01027300008A
:10005A00BC000BBE0029EF8DF084FFADF022E4CC8A
:10006A00F875F008EF2FFFEE33FEEC33FCEE9DEC53
:10007A00984005FCEE9DFE0FD5F0E9E4CEFD22ED99
:10008A00F8F5F0EE8420D21CFEADF075F008EF2FE3
:10009A00FFED33FD4007985006D5F0F222C398FDD4
:0500AA000FD5F0EA2271
:00000001FF
